{
  "contractName": "Faucet",
  "abi": [
    {
      "anonymous": false,
      "inputs": [
        {
          "indexed": true,
          "internalType": "address",
          "name": "from",
          "type": "address"
        },
        {
          "indexed": false,
          "internalType": "uint256",
          "name": "amount",
          "type": "uint256"
        }
      ],
      "name": "Deposit",
      "type": "event"
    },
    {
      "anonymous": false,
      "inputs": [
        {
          "indexed": true,
          "internalType": "address",
          "name": "to",
          "type": "address"
        },
        {
          "indexed": false,
          "internalType": "uint256",
          "name": "amount",
          "type": "uint256"
        }
      ],
      "name": "Withdrawal",
      "type": "event"
    },
    {
      "payable": true,
      "stateMutability": "payable",
      "type": "fallback"
    },
    {
      "constant": false,
      "inputs": [
        {
          "internalType": "uint256",
          "name": "withdraw_amount",
          "type": "uint256"
        }
      ],
      "name": "withdraw",
      "outputs": [],
      "payable": false,
      "stateMutability": "nonpayable",
      "type": "function"
    }
  ],
  "bytecode": "0x608060405234801561001057600080fd5b50610277806100206000396000f3fe60806040526004361061001e5760003560e01c80632e1a7d4d1461006e575b3373ffffffffffffffffffffffffffffffffffffffff167fe1fffcc4923d04b559f4d29a8bfc6cda04eb5b0d3c460751c2402c5c5cc9109c346040518082815260200191505060405180910390a2005b34801561007a57600080fd5b506100a76004803603602081101561009157600080fd5b81019080803590602001909291905050506100a9565b005b8047101561011f576040517f08c379a000000000000000000000000000000000000000000000000000000000815260040180806020018281038252601a8152602001807f4661756365743a20496e73756666696369656e742066756e647300000000000081525060200191505060405180910390fd5b67016345785d8a0000811115610180576040517f08c379a000000000000000000000000000000000000000000000000000000000815260040180806020018281038252602a815260200180610219602a913960400191505060405180910390fd5b3373ffffffffffffffffffffffffffffffffffffffff166108fc829081150290604051600060405180830381858888f193505050501580156101c6573d6000803e3d6000fd5b503373ffffffffffffffffffffffffffffffffffffffff167f7fcf532c15f0a6db0bd6d0e038bea71d30d808c7d98cb3bf7268a95bf5081b65826040518082815260200191505060405180910390a25056fe4661756365743a204d6178207769746864726177616c2069732073657420746f20302e31204574686572a265627a7a7231582014b1745fa3ba3457243f3cb9da91158abad79f2586010e9fe5867f71049d436564736f6c63430005100032",
  "source": "pragma solidity >=0.4.25 <0.7.0;\r\n\r\ncontract Faucet {\r\n\r\n    event Withdrawal (address indexed to, uint amount);\r\n    event Deposit (address indexed from, uint amount);\r\n\r\n    //faucet is to give ethers for free\r\n    function withdraw(uint withdraw_amount) public {\r\n        // check for sufficient funds \r\n        require(address(this).balance >= withdraw_amount, \"Faucet: Insufficient funds\");\r\n        require(withdraw_amount <= 0.1 ether, \"Faucet: Max withdrawal is set to 0.1 Ether\");\r\n        msg.sender.transfer(withdraw_amount);\r\n        emit Withdrawal (msg.sender, withdraw_amount);\r\n\r\n    }\r\n\r\n    function () external payable {\r\n        emit Deposit (msg.sender, msg.value);\r\n\r\n    }\r\n}",
  "sourcePath": "C:\\Users\\zakar\\Desktop\\Working Lab 5\\MetaCoin\\contracts\\Faucet.sol",
  "compiler": {
    "name": "solc",
    "version": "0.5.16+commit.9c3226ce.Emscripten.clang"
  },
  "schemaVersion": "3.2.0",
  "updatedAt": "2020-05-30T21:26:00.351Z",
  "devdoc": {
    "methods": {}
  },
  "userdoc": {
    "methods": {}
  }
}